:100000000C942A000C943C000C943C000C943C0092
:100010000C943C000C943C000C9465010C943C0046
:100020000C943C000C943C000C943C000C94C501D6
:100030000C943C000C943C000C943C000C943C0050
:100040000C943C000C943C000C943C000C943C0040
:100050000C943C0011241FBECFE5D4E0DEBFCDBF21
:1000600020E0A0E6B0E001C01D92AE3BB207E1F790
:100070000E943C030C949D030C940000CF93DF93EB
:10008000EC01DB0118821C921BC0288130E0F901D1
:10009000EE0FFF1FEE0FFF1FEE0FFF1FE20FF31F0C
:1000A000E05AFF4FE90FF11D2081222371F09F5F7D
:1000B0009C939C91993048F31C9288818F5F888330
:1000C00088818930B0F380E001C081E0DF91CF9179
:1000D0000895CF93DF9350E091E014C0282F30E0D3
:1000E000F901EE0FFF1FEE0FFF1FEE0FFF1FE20FD4
:1000F000F31FE05AFF4FE50FF11D2081241301C0CB
:1001000090E05F5F5930C8F49111E8CF50E016C01D
:10011000252F30E0F901EE0FFF1FEE0FFF1FEE0F4E
:10012000FF1FE20FF31FE05AFF4FE60FF11D208182
:10013000421301C090E05F5F01C050E0593010F4FD
:100140009111E6CFABEA6A9FB12D1124B6952B2F02
:10015000220FB20F8A9FA12D1124A6952A2F220FBC
:10016000A20F70E021C02A2F30E0270F311DEB2FA6
:10017000F0E0E50FF11DE901CC0FDD1FCC0FDD1F15
:10018000CC0FDD1F2C0F3D1F205A3F4FE20FF31FF6
:100190002081421301C090E05F5F01C050E0533006
:1001A00010F49111E0CF7F5F733010F49111F6CF0E
:1001B0009923A1F090E0FC01EE0FFF1FEE0FFF1F4F
:1001C000EE0FFF1F8E0F9F1FFC01E05AFF4FE60F3F
:1001D000F11D8081882321F080E003C080E001C010
:1001E00081E0DF91CF9108951F93CF93DF9300D0EB
:1001F000CDB7DEB7BE016E5F7F4FCE0101960E9484
:100200003E00882309F443C08091BB00882309F491
:1002100040C08091BC008F5F8093BC0011E02EC075
:10022000412F6A8189810E946900882331F1898187
:1002300090E02A81FC01EE0FFF1FEE0FFF1FEE0F73
:10024000FF1FE80FF91FE05AFF4FE20FF11D108367
:100250000E94F40081111FC0898190E02A81FC0175
:10026000EE0FFF1FEE0FFF1FEE0FFF1FE80FF91F2E
:10027000E05AFF4FE20FF11D10821F5F1A3080F22B
:100280008091BC0081508093BC0080E005C081E07B
:1002900003C081E001C081E00F900F90DF91CF910A
:1002A0001F9108955D9BFECF8CB908958CB18D3060
:1002B00059F0E091B900F0E0EF54FF4F8083909146
:1002C000B9009F5F9093B90008950FB60F92002474
:1002D0000F931F932F933F934F935F936F937F934E
:1002E0008F939F93AF93BF93CF93DF93EF93FF933E
:1002F0008091BC00803518F08FEF88BB30C08091B2
:10030000BC00863418F08FE788BB29C08091BC0000
:100310008C3318F08FE388BB22C08091BC008233FD
:1003200018F08FE188BB1BC08091BC00883218F0A8
:100330008FE088BB14C08091BC008E3118F087E03C
:1003400088BB0DC08091BC00843118F083E088BB6D
:1003500006C08091BC008A3010F081E088BB1DBCD3
:100360001CBCFF91EF91DF91CF91BF91AF919F9115
:100370008F917F916F915F914F913F912F911F913D
:100380000F910F900FBE002418950FB60F92002406
:100390000F931F932F933F934F935F936F937F938D
:1003A0008F939F93AF93BF93CF93DF93EF93FF937D
:1003B00080E002C00E9456015F99FCCF8A3009F0AC
:1003C00040C18091B100813469F48FE40E945201F0
:1003D0008BE40E9452018DE00E9452018AE00E944B
:1003E000520123C18091B100833471F51092BC0099
:1003F0001092BA001092BD0018BA30E016C0832FD8
:1004000090E0FC01EE0FFF1FEE0FFF1FEE0FFF1F2E
:10041000E80FF91FE05AFF4FE20FF11D10822F5F26
:1004200001C020E0293058F33F5F3930D0F38FE42A
:100430000E9452018BE40E9452018DE00E94520101
:100440008AE00E945201F1C08091B1008E3461F5C2
:10045000E1EBF0E0818190E0C197228130E021530F
:10046000310943814053BC01660F771F660F771F28
:10047000660F771F860F971F805A9F4FFC01E20F70
:10048000F31F40838091BC008F5F8093BC008FE49A
:100490000E9452018BE40E9452018DE00E945201A1
:1004A0008AE00E945201C1C08091B100803581F480
:1004B00081E08093BB008FE40E9452018BE40E9494
:1004C00052018DE00E9452018AE00E945201ADC0AB
:1004D0008091B1008335D1F48EE40E94520181E312
:1004E0000E94520181E30E94520180916000805D70
:1004F0000E9452018DE00E9452018AE00E94520146
:100500001092BA0081E08093BD008FC08091B1004D
:10051000843509F049C08091BA00893051F484E4EF
:100520000E9452018DE00E9452018AE00E94520115
:100530007CC08EE40E9452018091BA008F5C0E94C0
:1005400052018091BD008F5C0E9452018091BA00DF
:1005500090E02091BD00FC01EE0FFF1FEE0FFF1F8A
:10056000EE0FFF1FE80FF91FE05AFF4FE20FF11DDA
:100570008081805D0E9452018DE00E9452018AE0DC
:100580000E9452018091BD008F5F8093BD008091D9
:10059000BD00893009F049C01092BD008091BA00B9
:1005A0008F5F8093BA0041C08091B100823479F4AA
:1005B0001092BB008FE40E9452018BE40E94520112
:1005C0008DE00E9452018AE00E9452012EC080916B
:1005D000B100843451F58EE40E945201C1EBD0E0A9
:1005E00089810E9452018A810E945201898190E092
:1005F000C1972A8130E021533109AC01440F551FC6
:10060000440F551F440F551F840F951F805A9F4F4D
:10061000FC01E20FF31F8081805D0E9452018DE09A
:100620000E9452018AE00E9452011092B90080E0BB
:1006300006C0E82FF0E0EF54FF4F10828F5F883044
:10064000C0F3FF91EF91DF91CF91BF91AF919F9157
:100650008F917F916F915F914F913F912F911F915A
:100660000F910F900FBE0024189588E98AB980E495
:1006700089B986E880BD08951092BC0080E006C06C
:10068000E82FF0E0EF54FF4F10828F5F8830C0F307
:100690001092B9001092BB001092BA001092BD00E7
:1006A00030E016C0832F90E0FC01EE0FFF1FEE0F2D
:1006B000FF1FEE0FFF1FE80FF91FE05AFF4FE20F79
:1006C000F11D10822F5F01C020E0293058F33F5FF9
:1006D0003930D0F38FEF87BB18BA80E096E09BBD2E
:1006E0008ABD80E189BF789484E08EBD0E94350385
:1006F00002C08FEF87BB8091BB008823D1F30E949B
:10070000F4008130B9F48091BB00813051F484E46D
:100710000E9452018DE00E9452018AE00E94520123
:1007200009C085E40E9452018DE00E9452018AE0D6
:0E0730000E9452011092BB00DECFF894FFCF62
:00000001FF
